{
  "_format": "hh-sol-artifact-1",
  "contractName": "FlipSkiBaseVRFerc20",
  "sourceName": "contracts/FlipSkiBaseVRFerc20.sol",
  "abi": [
    {
      "inputs": [
        {
          "internalType": "address",
          "name": "_tokenAddress",
          "type": "address"
        },
        {
          "internalType": "address payable",
          "name": "_initialFeeWallet",
          "type": "address"
        },
        {
          "internalType": "uint256",
          "name": "_initialFeePercentage",
          "type": "uint256"
        },
        {
          "internalType": "uint256",
          "name": "_initialMaxWager",
          "type": "uint256"
        },
        {
          "internalType": "uint256",
          "name": "_initialMinWager",
          "type": "uint256"
        },
        {
          "internalType": "address",
          "name": "_vrfCoordinator",
          "type": "address"
        },
        {
          "internalType": "uint256",
          "name": "_subscriptionId",
          "type": "uint256"
        },
        {
          "internalType": "bytes32",
          "name": "_keyHash",
          "type": "bytes32"
        }
      ],
      "stateMutability": "nonpayable",
      "type": "constructor"
    },
    {
      "inputs": [],
      "name": "EnforcedPause",
      "type": "error"
    },
    {
      "inputs": [],
      "name": "ExpectedPause",
      "type": "error"
    },
    {
      "inputs": [
        {
          "internalType": "address",
          "name": "have",
          "type": "address"
        },
        {
          "internalType": "address",
          "name": "want",
          "type": "address"
        }
      ],
      "name": "OnlyCoordinatorCanFulfill",
      "type": "error"
    },
    {
      "inputs": [
        {
          "internalType": "address",
          "name": "have",
          "type": "address"
        },
        {
          "internalType": "address",
          "name": "owner",
          "type": "address"
        },
        {
          "internalType": "address",
          "name": "coordinator",
          "type": "address"
        }
      ],
      "name": "OnlyOwnerOrCoordinator",
      "type": "error"
    },
    {
      "inputs": [],
      "name": "ReentrancyGuardReentrantCall",
      "type": "error"
    },
    {
      "inputs": [],
      "name": "ZeroAddress",
      "type": "error"
    },
    {
      "anonymous": false,
      "inputs": [
        {
          "indexed": false,
          "internalType": "address",
          "name": "vrfCoordinator",
          "type": "address"
        }
      ],
      "name": "CoordinatorSet",
      "type": "event"
    },
    {
      "anonymous": false,
      "inputs": [
        {
          "indexed": true,
          "internalType": "uint256",
          "name": "gameId",
          "type": "uint256"
        },
        {
          "indexed": true,
          "internalType": "address",
          "name": "player",
          "type": "address"
        },
        {
          "indexed": false,
          "internalType": "uint256",
          "name": "amount",
          "type": "uint256"
        }
      ],
      "name": "EmergencyRefund",
      "type": "event"
    },
    {
      "anonymous": false,
      "inputs": [
        {
          "indexed": false,
          "internalType": "uint256",
          "name": "newFeePercentage",
          "type": "uint256"
        }
      ],
      "name": "FeePercentageUpdated",
      "type": "event"
    },
    {
      "anonymous": false,
      "inputs": [
        {
          "indexed": true,
          "internalType": "address",
          "name": "newFeeWallet",
          "type": "address"
        }
      ],
      "name": "FeeWalletUpdated",
      "type": "event"
    },
    {
      "anonymous": false,
      "inputs": [
        {
          "indexed": true,
          "internalType": "uint256",
          "name": "gameId",
          "type": "uint256"
        },
        {
          "indexed": true,
          "internalType": "address",
          "name": "player",
          "type": "address"
        },
        {
          "indexed": false,
          "internalType": "enum FlipSkiBaseVRFerc20.CoinSide",
          "name": "choice",
          "type": "uint8"
        },
        {
          "indexed": false,
          "internalType": "uint256",
          "name": "wagerAmount",
          "type": "uint256"
        },
        {
          "indexed": true,
          "internalType": "uint256",
          "name": "vrfRequestId",
          "type": "uint256"
        }
      ],
      "name": "GameRequested",
      "type": "event"
    },
    {
      "anonymous": false,
      "inputs": [
        {
          "indexed": true,
          "internalType": "uint256",
          "name": "gameId",
          "type": "uint256"
        },
        {
          "indexed": true,
          "internalType": "address",
          "name": "player",
          "type": "address"
        },
        {
          "indexed": false,
          "internalType": "enum FlipSkiBaseVRFerc20.CoinSide",
          "name": "result",
          "type": "uint8"
        },
        {
          "indexed": false,
          "internalType": "uint256",
          "name": "payoutAmount",
          "type": "uint256"
        },
        {
          "indexed": false,
          "internalType": "uint256",
          "name": "feeAmount",
          "type": "uint256"
        },
        {
          "indexed": true,
          "internalType": "uint256",
          "name": "vrfRequestId",
          "type": "uint256"
        },
        {
          "indexed": false,
          "internalType": "bool",
          "name": "playerWon",
          "type": "bool"
        }
      ],
      "name": "GameSettled",
      "type": "event"
    },
    {
      "anonymous": false,
      "inputs": [
        {
          "indexed": false,
          "internalType": "uint256",
          "name": "newMaxPendingGames",
          "type": "uint256"
        }
      ],
      "name": "MaxPendingGamesUpdated",
      "type": "event"
    },
    {
      "anonymous": false,
      "inputs": [
        {
          "indexed": false,
          "internalType": "uint256",
          "name": "newMaxWager",
          "type": "uint256"
        }
      ],
      "name": "MaxWagerUpdated",
      "type": "event"
    },
    {
      "anonymous": false,
      "inputs": [
        {
          "indexed": false,
          "internalType": "uint256",
          "name": "newMinWager",
          "type": "uint256"
        }
      ],
      "name": "MinWagerUpdated",
      "type": "event"
    },
    {
      "anonymous": false,
      "inputs": [
        {
          "indexed": true,
          "internalType": "address",
          "name": "previousOwner",
          "type": "address"
        },
        {
          "indexed": true,
          "internalType": "address",
          "name": "newOwner",
          "type": "address"
        }
      ],
      "name": "OwnershipChanged",
      "type": "event"
    },
    {
      "anonymous": false,
      "inputs": [
        {
          "indexed": true,
          "internalType": "address",
          "name": "from",
          "type": "address"
        },
        {
          "indexed": true,
          "internalType": "address",
          "name": "to",
          "type": "address"
        }
      ],
      "name": "OwnershipTransferRequested",
      "type": "event"
    },
    {
      "anonymous": false,
      "inputs": [
        {
          "indexed": true,
          "internalType": "address",
          "name": "from",
          "type": "address"
        },
        {
          "indexed": true,
          "internalType": "address",
          "name": "to",
          "type": "address"
        }
      ],
      "name": "OwnershipTransferred",
      "type": "event"
    },
    {
      "anonymous": false,
      "inputs": [
        {
          "indexed": false,
          "internalType": "address",
          "name": "account",
          "type": "address"
        }
      ],
      "name": "Paused",
      "type": "event"
    },
    {
      "anonymous": false,
      "inputs": [
        {
          "indexed": true,
          "internalType": "uint256",
          "name": "gameId",
          "type": "uint256"
        },
        {
          "indexed": true,
          "internalType": "uint256",
          "name": "vrfRequestId",
          "type": "uint256"
        },
        {
          "indexed": false,
          "internalType": "uint256",
          "name": "randomWord",
          "type": "uint256"
        }
      ],
      "name": "RandomWordReceived",
      "type": "event"
    },
    {
      "anonymous": false,
      "inputs": [
        {
          "indexed": false,
          "internalType": "address",
          "name": "account",
          "type": "address"
        }
      ],
      "name": "Unpaused",
      "type": "event"
    },
    {
      "anonymous": false,
      "inputs": [
        {
          "indexed": false,
          "internalType": "uint256",
          "name": "newSubscriptionId",
          "type": "uint256"
        },
        {
          "indexed": false,
          "internalType": "bytes32",
          "name": "newKeyHash",
          "type": "bytes32"
        },
        {
          "indexed": false,
          "internalType": "uint32",
          "name": "newCallbackGasLimit",
          "type": "uint32"
        }
      ],
      "name": "VRFParametersUpdated",
      "type": "event"
    },
    {
      "stateMutability": "payable",
      "type": "fallback"
    },
    {
      "inputs": [],
      "name": "EMERGENCY_TIMEOUT",
      "outputs": [
        {
          "internalType": "uint256",
          "name": "",
          "type": "uint256"
        }
      ],
      "stateMutability": "view",
      "type": "function"
    },
    {
      "inputs": [],
      "name": "acceptOwnership",
      "outputs": [],
      "stateMutability": "nonpayable",
      "type": "function"
    },
    {
      "inputs": [],
      "name": "contractOwner",
      "outputs": [
        {
          "internalType": "address",
          "name": "",
          "type": "address"
        }
      ],
      "stateMutability": "view",
      "type": "function"
    },
    {
      "inputs": [
        {
          "internalType": "uint256",
          "name": "_gameId",
          "type": "uint256"
        }
      ],
      "name": "emergencyRefund",
      "outputs": [],
      "stateMutability": "nonpayable",
      "type": "function"
    },
    {
      "inputs": [],
      "name": "feePercentage",
      "outputs": [
        {
          "internalType": "uint256",
          "name": "",
          "type": "uint256"
        }
      ],
      "stateMutability": "view",
      "type": "function"
    },
    {
      "inputs": [],
      "name": "feeWallet",
      "outputs": [
        {
          "internalType": "address payable",
          "name": "",
          "type": "address"
        }
      ],
      "stateMutability": "view",
      "type": "function"
    },
    {
      "inputs": [
        {
          "internalType": "enum FlipSkiBaseVRFerc20.CoinSide",
          "name": "_choice",
          "type": "uint8"
        },
        {
          "internalType": "uint256",
          "name": "_wagerAmount",
          "type": "uint256"
        }
      ],
      "name": "flip",
      "outputs": [],
      "stateMutability": "nonpayable",
      "type": "function"
    },
    {
      "inputs": [],
      "name": "gameIdCounter",
      "outputs": [
        {
          "internalType": "uint256",
          "name": "",
          "type": "uint256"
        }
      ],
      "stateMutability": "view",
      "type": "function"
    },
    {
      "inputs": [
        {
          "internalType": "uint256",
          "name": "",
          "type": "uint256"
        }
      ],
      "name": "games",
      "outputs": [
        {
          "internalType": "address",
          "name": "player",
          "type": "address"
        },
        {
          "internalType": "enum FlipSkiBaseVRFerc20.CoinSide",
          "name": "choice",
          "type": "uint8"
        },
        {
          "internalType": "uint256",
          "name": "wagerAmount",
          "type": "uint256"
        },
        {
          "internalType": "uint256",
          "name": "feeAmount",
          "type": "uint256"
        },
        {
          "internalType": "uint256",
          "name": "payoutAmount",
          "type": "uint256"
        },
        {
          "internalType": "enum FlipSkiBaseVRFerc20.CoinSide",
          "name": "result",
          "type": "uint8"
        },
        {
          "internalType": "bool",
          "name": "requested",
          "type": "bool"
        },
        {
          "internalType": "bool",
          "name": "settled",
          "type": "bool"
        },
        {
          "internalType": "uint256",
          "name": "vrfRequestId",
          "type": "uint256"
        },
        {
          "internalType": "uint256",
          "name": "requestTimestamp",
          "type": "uint256"
        }
      ],
      "stateMutability": "view",
      "type": "function"
    },
    {
      "inputs": [],
      "name": "getTokenInfo",
      "outputs": [
        {
          "internalType": "address",
          "name": "",
          "type": "address"
        },
        {
          "internalType": "string",
          "name": "",
          "type": "string"
        },
        {
          "internalType": "string",
          "name": "",
          "type": "string"
        },
        {
          "internalType": "uint8",
          "name": "",
          "type": "uint8"
        }
      ],
      "stateMutability": "view",
      "type": "function"
    },
    {
      "inputs": [
        {
          "internalType": "uint256",
          "name": "_gameId",
          "type": "uint256"
        }
      ],
      "name": "isEligibleForEmergencyRefund",
      "outputs": [
        {
          "internalType": "bool",
          "name": "",
          "type": "bool"
        }
      ],
      "stateMutability": "view",
      "type": "function"
    },
    {
      "inputs": [],
      "name": "maxPendingGamesPerPlayer",
      "outputs": [
        {
          "internalType": "uint256",
          "name": "",
          "type": "uint256"
        }
      ],
      "stateMutability": "view",
      "type": "function"
    },
    {
      "inputs": [],
      "name": "maxWager",
      "outputs": [
        {
          "internalType": "uint256",
          "name": "",
          "type": "uint256"
        }
      ],
      "stateMutability": "view",
      "type": "function"
    },
    {
      "inputs": [],
      "name": "minWager",
      "outputs": [
        {
          "internalType": "uint256",
          "name": "",
          "type": "uint256"
        }
      ],
      "stateMutability": "view",
      "type": "function"
    },
    {
      "inputs": [],
      "name": "owner",
      "outputs": [
        {
          "internalType": "address",
          "name": "",
          "type": "address"
        }
      ],
      "stateMutability": "view",
      "type": "function"
    },
    {
      "inputs": [],
      "name": "pause",
      "outputs": [],
      "stateMutability": "nonpayable",
      "type": "function"
    },
    {
      "inputs": [],
      "name": "paused",
      "outputs": [
        {
          "internalType": "bool",
          "name": "",
          "type": "bool"
        }
      ],
      "stateMutability": "view",
      "type": "function"
    },
    {
      "inputs": [
        {
          "internalType": "address",
          "name": "",
          "type": "address"
        }
      ],
      "name": "pendingGamesPerPlayer",
      "outputs": [
        {
          "internalType": "uint256",
          "name": "",
          "type": "uint256"
        }
      ],
      "stateMutability": "view",
      "type": "function"
    },
    {
      "inputs": [
        {
          "internalType": "uint256",
          "name": "requestId",
          "type": "uint256"
        },
        {
          "internalType": "uint256[]",
          "name": "randomWords",
          "type": "uint256[]"
        }
      ],
      "name": "rawFulfillRandomWords",
      "outputs": [],
      "stateMutability": "nonpayable",
      "type": "function"
    },
    {
      "inputs": [],
      "name": "s_vrfCoordinator",
      "outputs": [
        {
          "internalType": "contract IVRFCoordinatorV2Plus",
          "name": "",
          "type": "address"
        }
      ],
      "stateMutability": "view",
      "type": "function"
    },
    {
      "inputs": [
        {
          "internalType": "address",
          "name": "_vrfCoordinator",
          "type": "address"
        }
      ],
      "name": "setCoordinator",
      "outputs": [],
      "stateMutability": "nonpayable",
      "type": "function"
    },
    {
      "inputs": [
        {
          "internalType": "uint256",
          "name": "_newFeePercentage",
          "type": "uint256"
        }
      ],
      "name": "setFeePercentage",
      "outputs": [],
      "stateMutability": "nonpayable",
      "type": "function"
    },
    {
      "inputs": [
        {
          "internalType": "address payable",
          "name": "_newFeeWallet",
          "type": "address"
        }
      ],
      "name": "setFeeWallet",
      "outputs": [],
      "stateMutability": "nonpayable",
      "type": "function"
    },
    {
      "inputs": [
        {
          "internalType": "uint256",
          "name": "_maxPendingGames",
          "type": "uint256"
        }
      ],
      "name": "setMaxPendingGamesPerPlayer",
      "outputs": [],
      "stateMutability": "nonpayable",
      "type": "function"
    },
    {
      "inputs": [
        {
          "internalType": "uint256",
          "name": "_newMaxWager",
          "type": "uint256"
        }
      ],
      "name": "setMaxWager",
      "outputs": [],
      "stateMutability": "nonpayable",
      "type": "function"
    },
    {
      "inputs": [
        {
          "internalType": "uint256",
          "name": "_newMinWager",
          "type": "uint256"
        }
      ],
      "name": "setMinWager",
      "outputs": [],
      "stateMutability": "nonpayable",
      "type": "function"
    },
    {
      "inputs": [
        {
          "internalType": "uint256",
          "name": "_newSubscriptionId",
          "type": "uint256"
        },
        {
          "internalType": "bytes32",
          "name": "_newKeyHash",
          "type": "bytes32"
        },
        {
          "internalType": "uint32",
          "name": "_newCallbackGasLimit",
          "type": "uint32"
        }
      ],
      "name": "setVRFParameters",
      "outputs": [],
      "stateMutability": "nonpayable",
      "type": "function"
    },
    {
      "inputs": [],
      "name": "tokenAddress",
      "outputs": [
        {
          "internalType": "address",
          "name": "",
          "type": "address"
        }
      ],
      "stateMutability": "view",
      "type": "function"
    },
    {
      "inputs": [
        {
          "internalType": "address",
          "name": "newOwner",
          "type": "address"
        }
      ],
      "name": "transferContractOwnership",
      "outputs": [],
      "stateMutability": "nonpayable",
      "type": "function"
    },
    {
      "inputs": [
        {
          "internalType": "address",
          "name": "to",
          "type": "address"
        }
      ],
      "name": "transferOwnership",
      "outputs": [],
      "stateMutability": "nonpayable",
      "type": "function"
    },
    {
      "inputs": [],
      "name": "unpause",
      "outputs": [],
      "stateMutability": "nonpayable",
      "type": "function"
    },
    {
      "inputs": [
        {
          "internalType": "uint256",
          "name": "",
          "type": "uint256"
        }
      ],
      "name": "vrfRequestToGameId",
      "outputs": [
        {
          "internalType": "uint256",
          "name": "",
          "type": "uint256"
        }
      ],
      "stateMutability": "view",
      "type": "function"
    },
    {
      "inputs": [],
      "name": "wagerToken",
      "outputs": [
        {
          "internalType": "contract IERC20",
          "name": "",
          "type": "address"
        }
      ],
      "stateMutability": "view",
      "type": "function"
    },
    {
      "inputs": [],
      "name": "withdrawContractTokenBalance",
      "outputs": [],
      "stateMutability": "nonpayable",
      "type": "function"
    },
    {
      "inputs": [],
      "name": "withdrawETH",
      "outputs": [],
      "stateMutability": "nonpayable",
      "type": "function"
    },
    {
      "inputs": [
        {
          "internalType": "address",
          "name": "_tokenAddress",
          "type": "address"
        },
        {
          "internalType": "uint256",
          "name": "_amount",
          "type": "uint256"
        }
      ],
      "name": "withdrawStuckTokens",
      "outputs": [],
      "stateMutability": "nonpayable",
      "type": "function"
    },
    {
      "stateMutability": "payable",
      "type": "receive"
    }
  ],
  "bytecode": "0x60e060405262046cd0600760006101000a81548163ffffffff021916908363ffffffff1602179055506003600c553480156200003a57600080fd5b50604051620063e0380380620063e0833981810160405281019062000060919062000882565b823380600060018081905550600073ffffffffffffffffffffffffffffffffffffffff168273ffffffffffffffffffffffffffffffffffffffff1603620000de576040517f08c379a0000000000000000000000000000000000000000000000000000000008152600401620000d590620009ac565b60405180910390fd5b81600260006101000a81548173ffffffffffffffffffffffffffffffffffffffff021916908373ffffffffffffffffffffffffffffffffffffffff160217905550600073ffffffffffffffffffffffffffffffffffffffff168173ffffffffffffffffffffffffffffffffffffffff1614620001665762000165816200062c60201b60201c565b5b505050600073ffffffffffffffffffffffffffffffffffffffff168173ffffffffffffffffffffffffffffffffffffffff1603620001d0576040517fd92e233d00000000000000000000000000000000000000000000000000000000815260040160405180910390fd5b80600460006101000a81548173ffffffffffffffffffffffffffffffffffffffff021916908373ffffffffffffffffffffffffffffffffffffffff16021790555050600073ffffffffffffffffffffffffffffffffffffffff168873ffffffffffffffffffffffffffffffffffffffff160362000284576040517f08c379a00000000000000000000000000000000000000000000000000000000081526004016200027b9062000a44565b60405180910390fd5b600073ffffffffffffffffffffffffffffffffffffffff168773ffffffffffffffffffffffffffffffffffffffff1603620002f6576040517f08c379a0000000000000000000000000000000000000000000000000000000008152600401620002ed9062000adc565b60405180910390fd5b6127108611156200033e576040517f08c379a0000000000000000000000000000000000000000000000000000000008152600401620003359062000b74565b60405180910390fd5b6000841162000384576040517f08c379a00000000000000000000000000000000000000000000000000000000081526004016200037b9062000be6565b60405180910390fd5b83851015620003ca576040517f08c379a0000000000000000000000000000000000000000000000000000000008152600401620003c19062000c7e565b60405180910390fd5b600073ffffffffffffffffffffffffffffffffffffffff168373ffffffffffffffffffffffffffffffffffffffff16036200043c576040517f08c379a0000000000000000000000000000000000000000000000000000000008152600401620004339062000d16565b60405180910390fd5b6000820362000482576040517f08c379a0000000000000000000000000000000000000000000000000000000008152600401620004799062000d88565b60405180910390fd5b33600760046101000a81548173ffffffffffffffffffffffffffffffffffffffff021916908373ffffffffffffffffffffffffffffffffffffffff1602179055503373ffffffffffffffffffffffffffffffffffffffff16600073ffffffffffffffffffffffffffffffffffffffff167f0384899bd253d83b23daa4d29aaa2efe0563d1132b43101e9ad667235aeb951b60405160405180910390a38773ffffffffffffffffffffffffffffffffffffffff1660c08173ffffffffffffffffffffffffffffffffffffffff16815250508773ffffffffffffffffffffffffffffffffffffffff1660a08173ffffffffffffffffffffffffffffffffffffffff168152505086600860006101000a81548173ffffffffffffffffffffffffffffffffffffffff021916908373ffffffffffffffffffffffffffffffffffffffff1602179055508560098190555084600a8190555083600b819055508273ffffffffffffffffffffffffffffffffffffffff1660808173ffffffffffffffffffffffffffffffffffffffff16815250508160058190555080600681905550505050505050505062000e1c565b3373ffffffffffffffffffffffffffffffffffffffff168173ffffffffffffffffffffffffffffffffffffffff16036200069d576040517f08c379a0000000000000000000000000000000000000000000000000000000008152600401620006949062000dfa565b60405180910390fd5b80600360006101000a81548173ffffffffffffffffffffffffffffffffffffffff021916908373ffffffffffffffffffffffffffffffffffffffff1602179055508073ffffffffffffffffffffffffffffffffffffffff16600260009054906101000a900473ffffffffffffffffffffffffffffffffffffffff1673ffffffffffffffffffffffffffffffffffffffff167fed8889f560326eb138920d842192f0eb3dd22b4f139c87a2c57538e05bae127860405160405180910390a350565b600080fd5b600073ffffffffffffffffffffffffffffffffffffffff82169050919050565b60006200078f8262000762565b9050919050565b620007a18162000782565b8114620007ad57600080fd5b50565b600081519050620007c18162000796565b92915050565b6000620007d48262000762565b9050919050565b620007e681620007c7565b8114620007f257600080fd5b50565b6000815190506200080681620007db565b92915050565b6000819050919050565b62000821816200080c565b81146200082d57600080fd5b50565b600081519050620008418162000816565b92915050565b6000819050919050565b6200085c8162000847565b81146200086857600080fd5b50565b6000815190506200087c8162000851565b92915050565b600080600080600080600080610100898b031215620008a657620008a56200075d565b5b6000620008b68b828c01620007b0565b9850506020620008c98b828c01620007f5565b9750506040620008dc8b828c0162000830565b9650506060620008ef8b828c0162000830565b9550506080620009028b828c0162000830565b94505060a0620009158b828c01620007b0565b93505060c0620009288b828c0162000830565b92505060e06200093b8b828c016200086b565b9150509295985092959890939650565b600082825260208201905092915050565b7f43616e6e6f7420736574206f776e657220746f207a65726f0000000000000000600082015250565b6000620009946018836200094b565b9150620009a1826200095c565b602082019050919050565b60006020820190508181036000830152620009c78162000985565b9050919050565b7f546f6b656e20616464726573732063616e6e6f74206265207a65726f2061646460008201527f7265737300000000000000000000000000000000000000000000000000000000602082015250565b600062000a2c6024836200094b565b915062000a3982620009ce565b604082019050919050565b6000602082019050818103600083015262000a5f8162000a1d565b9050919050565b7f4665652077616c6c65742063616e6e6f74206265207a65726f2061646472657360008201527f7300000000000000000000000000000000000000000000000000000000000000602082015250565b600062000ac46021836200094b565b915062000ad18262000a66565b604082019050919050565b6000602082019050818103600083015262000af78162000ab5565b9050919050565b7f4665652070657263656e746167652063616e6e6f74206578636565642031303060008201527f303020626173697320706f696e74732028313030252900000000000000000000602082015250565b600062000b5c6036836200094b565b915062000b698262000afe565b604082019050919050565b6000602082019050818103600083015262000b8f8162000b4d565b9050919050565b7f4d696e207761676572206d7573742062652067726561746572207468616e2030600082015250565b600062000bce6020836200094b565b915062000bdb8262000b96565b602082019050919050565b6000602082019050818103600083015262000c018162000bbf565b9050919050565b7f4d6178207761676572206d7573742062652067726561746572207468616e206f60008201527f7220657175616c20746f206d696e207761676572000000000000000000000000602082015250565b600062000c666034836200094b565b915062000c738262000c08565b604082019050919050565b6000602082019050818103600083015262000c998162000c57565b9050919050565b7f56524620436f6f7264696e61746f7220616464726573732063616e6e6f74206260008201527f65207a65726f0000000000000000000000000000000000000000000000000000602082015250565b600062000cfe6026836200094b565b915062000d0b8262000ca0565b604082019050919050565b6000602082019050818103600083015262000d318162000cef565b9050919050565b7f537562736372697074696f6e2049442063616e6e6f74206265207a65726f0000600082015250565b600062000d70601e836200094b565b915062000d7d8262000d38565b602082019050919050565b6000602082019050818103600083015262000da38162000d61565b9050919050565b7f43616e6e6f74207472616e7366657220746f2073656c66000000000000000000600082015250565b600062000de26017836200094b565b915062000def8262000daa565b602082019050919050565b6000602082019050818103600083015262000e158162000dd3565b9050919050565b60805160a05160c05161552462000ebc600039600081816120e2015281816123040152818161239501528181612433015281816124c40152818161252d015281816125b901526125ed015260008181610ba701528181610c8501528181610e850152818161118a0152818161126901528181611879015281816126230152818161300e015281816130f201526131d901526000610fce01526155246000f3fe6080604052600436106102135760003560e01c80639ae980a811610118578063bb9c3f2b116100a0578063d15b48b91161006f578063d15b48b91461072d578063da7c0dc914610756578063e086e5ec14610793578063f25f4b56146107aa578063f2fde38b146107d55761021a565b8063bb9c3f2b14610671578063bd61f0a61461069c578063ce606ee0146106c5578063d0d48574146106f05761021a565b8063a52ef3fa116100e7578063a52ef3fa1461059b578063a843c51f146105c6578063abb1dc44146105ef578063adad36851461061d578063ae06c1b7146106485761021a565b80639ae980a8146104f15780639d76ea581461051a5780639eccacf614610545578063a001ecdd146105705761021a565b80635c975abb1161019b5780637f2640761161016a5780637f264076146104325780638456cb591461045d5780638da5cb5b146104745780638ea981171461049f57806390d49b9d146104c85761021a565b80635c975abb1461039c57806370e5deb9146103c757806378597917146103f057806379ba50971461041b5761021a565b806324e2b663116101e257806324e2b663146102df578063299bdbfe146103085780633f4ba83a1461031f5780634228487c1461033657806344e493fa1461035f5761021a565b80630c32ddab1461021c578063117a5b90146102455780631bb412d61461028b5780631fe543e3146102b65761021a565b3661021a57005b005b34801561022857600080fd5b50610243600480360381019061023e9190613713565b6107fe565b005b34801561025157600080fd5b5061026c60048036038101906102679190613713565b610912565b6040516102829a99989796959493929190613822565b60405180910390f35b34801561029757600080fd5b506102a06109ba565b6040516102ad91906138be565b60405180910390f35b3480156102c257600080fd5b506102dd60048036038101906102d8919061393e565b6109c0565b005b3480156102eb57600080fd5b50610306600480360381019061030191906139c3565b610a86565b005b34801561031457600080fd5b5061031d6110ee565b005b34801561032b57600080fd5b50610334611356565b005b34801561034257600080fd5b5061035d60048036038101906103589190613a75565b6113f8565b005b34801561036b57600080fd5b5061038660048036038101906103819190613713565b611599565b60405161039391906138be565b60405180910390f35b3480156103a857600080fd5b506103b16115b1565b6040516103be9190613ac8565b60405180910390f35b3480156103d357600080fd5b506103ee60048036038101906103e99190613713565b6115c7565b005b3480156103fc57600080fd5b506104056119b1565b60405161041291906138be565b60405180910390f35b34801561042757600080fd5b506104306119b7565b005b34801561043e57600080fd5b50610447611b4e565b60405161045491906138be565b60405180910390f35b34801561046957600080fd5b50610472611b54565b005b34801561048057600080fd5b50610489611bf6565b6040516104969190613ae3565b60405180910390f35b3480156104ab57600080fd5b506104c660048036038101906104c19190613b2a565b611c20565b005b3480156104d457600080fd5b506104ef60048036038101906104ea9190613b95565b611e01565b005b3480156104fd57600080fd5b5061051860048036038101906105139190613713565b611f87565b005b34801561052657600080fd5b5061052f6120e0565b60405161053c9190613ae3565b60405180910390f35b34801561055157600080fd5b5061055a612104565b6040516105679190613c21565b60405180910390f35b34801561057c57600080fd5b5061058561212a565b60405161059291906138be565b60405180910390f35b3480156105a757600080fd5b506105b0612130565b6040516105bd91906138be565b60405180910390f35b3480156105d257600080fd5b506105ed60048036038101906105e89190613b2a565b612136565b005b3480156105fb57600080fd5b506106046122fb565b6040516106149493929190613ce8565b60405180910390f35b34801561062957600080fd5b50610632612621565b60405161063f9190613d5c565b60405180910390f35b34801561065457600080fd5b5061066f600480360381019061066a9190613713565b612645565b005b34801561067d57600080fd5b5061068661275b565b60405161069391906138be565b60405180910390f35b3480156106a857600080fd5b506106c360048036038101906106be9190613d77565b612761565b005b3480156106d157600080fd5b506106da61292e565b6040516106e79190613ae3565b60405180910390f35b3480156106fc57600080fd5b5061071760048036038101906107129190613b2a565b612958565b60405161072491906138be565b60405180910390f35b34801561073957600080fd5b50610754600480360381019061074f9190613713565b612970565b005b34801561076257600080fd5b5061077d60048036038101906107789190613713565b612a86565b60405161078a9190613ac8565b60405180910390f35b34801561079f57600080fd5b506107a8612af0565b005b3480156107b657600080fd5b506107bf612c8f565b6040516107cc9190613dc6565b60405180910390f35b3480156107e157600080fd5b506107fc60048036038101906107f79190613b2a565b612cb5565b005b600760049054906101000a900473ffffffffffffffffffffffffffffffffffffffff1673ffffffffffffffffffffffffffffffffffffffff163373ffffffffffffffffffffffffffffffffffffffff161461088e576040517f08c379a000000000000000000000000000000000000000000000000000000000815260040161088590613e53565b60405180910390fd5b600081116108d1576040517f08c379a00000000000000000000000000000000000000000000000000000000081526004016108c890613ee5565b60405180910390fd5b80600c819055507fc4d51a6c1951412ad8a431f18b3ec5e22b9431935778db34362b15e3692c95228160405161090791906138be565b60405180910390a150565b600f6020528060005260406000206000915090508060000160009054906101000a900473ffffffffffffffffffffffffffffffffffffffff16908060000160149054906101000a900460ff16908060010154908060020154908060030154908060040160009054906101000a900460ff16908060040160019054906101000a900460ff16908060040160029054906101000a900460ff1690806005015490806006015490508a565b600e5481565b600460009054906101000a900473ffffffffffffffffffffffffffffffffffffffff1673ffffffffffffffffffffffffffffffffffffffff163373ffffffffffffffffffffffffffffffffffffffff1614610a765733600460009054906101000a900473ffffffffffffffffffffffffffffffffffffffff166040517f1cf993f4000000000000000000000000000000000000000000000000000000008152600401610a6d929190613f05565b60405180910390fd5b610a81838383612cc9565b505050565b610a8e61336d565b610a966133ae565b80600b54811015610adc576040517f08c379a0000000000000000000000000000000000000000000000000000000008152600401610ad390613f7a565b60405180910390fd5b600a54811115610b21576040517f08c379a0000000000000000000000000000000000000000000000000000000008152600401610b1890613fe6565b60405180910390fd5b600c54600d60003373ffffffffffffffffffffffffffffffffffffffff1673ffffffffffffffffffffffffffffffffffffffff1681526020019081526020016000205410610ba4576040517f08c379a0000000000000000000000000000000000000000000000000000000008152600401610b9b90614078565b60405180910390fd5b817f000000000000000000000000000000000000000000000000000000000000000073ffffffffffffffffffffffffffffffffffffffff1663dd62ed3e33306040518363ffffffff1660e01b8152600401610c00929190613f05565b602060405180830381865afa158015610c1d573d6000803e3d6000fd5b505050506040513d601f19601f82011682018060405250810190610c4191906140ad565b1015610c82576040517f08c379a0000000000000000000000000000000000000000000000000000000008152600401610c7990614126565b60405180910390fd5b817f000000000000000000000000000000000000000000000000000000000000000073ffffffffffffffffffffffffffffffffffffffff166370a08231336040518263ffffffff1660e01b8152600401610cdc9190613ae3565b602060405180830381865afa158015610cf9573d6000803e3d6000fd5b505050506040513d601f19601f82011682018060405250810190610d1d91906140ad565b1015610d5e576040517f08c379a0000000000000000000000000000000000000000000000000000000008152600401610d5590614192565b60405180910390fd5b6000600e6000815480929190610d73906141e1565b9190505590506000600f60008381526020019081526020016000209050338160000160006101000a81548173ffffffffffffffffffffffffffffffffffffffff021916908373ffffffffffffffffffffffffffffffffffffffff160217905550848160000160146101000a81548160ff02191690836001811115610dfa57610df9613781565b5b021790555083816001018190555060018160040160016101000a81548160ff021916908315150217905550428160060181905550600d60003373ffffffffffffffffffffffffffffffffffffffff1673ffffffffffffffffffffffffffffffffffffffff1681526020019081526020016000206000815480929190610e7e906141e1565b91905055507f000000000000000000000000000000000000000000000000000000000000000073ffffffffffffffffffffffffffffffffffffffff166323b872dd3330876040518463ffffffff1660e01b8152600401610ee093929190614229565b6020604051808303816000875af1158015610eff573d6000803e3d6000fd5b505050506040513d601f19601f82011682018060405250810190610f23919061428c565b610f62576040517f08c379a0000000000000000000000000000000000000000000000000000000008152600401610f5990614305565b60405180910390fd5b60006040518060c0016040528060065481526020016005548152602001600361ffff168152602001600760009054906101000a900463ffffffff1663ffffffff168152602001600163ffffffff16815260200160405180602001604052806000815250815250905060007f000000000000000000000000000000000000000000000000000000000000000073ffffffffffffffffffffffffffffffffffffffff16639b1c385e836040518263ffffffff1660e01b8152600401611025919061444d565b6020604051808303816000875af1158015611044573d6000803e3d6000fd5b505050506040513d601f19601f8201168201806040525081019061106891906140ad565b9050808360050181905550836010600083815260200190815260200160002081905550803373ffffffffffffffffffffffffffffffffffffffff16857ff997d823f48f374dcf320abcfb4c14d035a288d7cc3e31d98a18d02b41bc56f78a8a6040516110d592919061446f565b60405180910390a450505050506110ea6133f4565b5050565b600760049054906101000a900473ffffffffffffffffffffffffffffffffffffffff1673ffffffffffffffffffffffffffffffffffffffff163373ffffffffffffffffffffffffffffffffffffffff161461117e576040517f08c379a000000000000000000000000000000000000000000000000000000000815260040161117590613e53565b60405180910390fd5b6111866133ae565b60007f000000000000000000000000000000000000000000000000000000000000000073ffffffffffffffffffffffffffffffffffffffff166370a08231306040518263ffffffff1660e01b81526004016111e19190613ae3565b602060405180830381865afa1580156111fe573d6000803e3d6000fd5b505050506040513d601f19601f8201168201806040525081019061122291906140ad565b905060008111611267576040517f08c379a000000000000000000000000000000000000000000000000000000000815260040161125e906144e4565b60405180910390fd5b7f000000000000000000000000000000000000000000000000000000000000000073ffffffffffffffffffffffffffffffffffffffff1663a9059cbb6112ab61292e565b836040518363ffffffff1660e01b81526004016112c9929190614504565b6020604051808303816000875af11580156112e8573d6000803e3d6000fd5b505050506040513d601f19601f8201168201806040525081019061130c919061428c565b61134b576040517f08c379a00000000000000000000000000000000000000000000000000000000081526004016113429061459f565b60405180910390fd5b506113546133f4565b565b600760049054906101000a900473ffffffffffffffffffffffffffffffffffffffff1673ffffffffffffffffffffffffffffffffffffffff163373ffffffffffffffffffffffffffffffffffffffff16146113e6576040517f08c379a00000000000000000000000000000000000000000000000000000000081526004016113dd90613e53565b60405180910390fd5b6113ee6133fd565b6113f661343d565b565b600760049054906101000a900473ffffffffffffffffffffffffffffffffffffffff1673ffffffffffffffffffffffffffffffffffffffff163373ffffffffffffffffffffffffffffffffffffffff1614611488576040517f08c379a000000000000000000000000000000000000000000000000000000000815260040161147f90613e53565b60405180910390fd5b600083036114cb576040517f08c379a00000000000000000000000000000000000000000000000000000000081526004016114c29061460b565b60405180910390fd5b60008163ffffffff1611611514576040517f08c379a000000000000000000000000000000000000000000000000000000000815260040161150b9061469d565b60405180910390fd5b826005819055508160068190555080600760006101000a81548163ffffffff021916908363ffffffff1602179055507fb7217e99784358ecd33b535f3d43fb8f45c1f26724cba648d2843b3be82b5bb6600554600654600760009054906101000a900463ffffffff1660405161158c939291906146db565b60405180910390a1505050565b60106020528060005260406000206000915090505481565b60008060009054906101000a900460ff16905090565b600760049054906101000a900473ffffffffffffffffffffffffffffffffffffffff1673ffffffffffffffffffffffffffffffffffffffff163373ffffffffffffffffffffffffffffffffffffffff1614611657576040517f08c379a000000000000000000000000000000000000000000000000000000000815260040161164e90613e53565b60405180910390fd5b61165f6133ae565b6000600f600083815260200190815260200160002090508060040160019054906101000a900460ff166116c7576040517f08c379a00000000000000000000000000000000000000000000000000000000081526004016116be9061475e565b60405180910390fd5b8060040160029054906101000a900460ff1615611719576040517f08c379a0000000000000000000000000000000000000000000000000000000008152600401611710906147ca565b60405180910390fd5b610e10816006015461172b91906147ea565b42101561176d576040517f08c379a000000000000000000000000000000000000000000000000000000000815260040161176490614890565b60405180910390fd5b60008160000160009054906101000a900473ffffffffffffffffffffffffffffffffffffffff16905060008260010154905060018360040160026101000a81548160ff02191690831515021790555060008360040160016101000a81548160ff0219169083151502179055506000600d60008473ffffffffffffffffffffffffffffffffffffffff1673ffffffffffffffffffffffffffffffffffffffff16815260200190815260200160002054111561187757600d60008373ffffffffffffffffffffffffffffffffffffffff1673ffffffffffffffffffffffffffffffffffffffff1681526020019081526020016000206000815480929190611871906148b0565b91905055505b7f000000000000000000000000000000000000000000000000000000000000000073ffffffffffffffffffffffffffffffffffffffff1663a9059cbb83836040518363ffffffff1660e01b81526004016118d2929190614504565b6020604051808303816000875af11580156118f1573d6000803e3d6000fd5b505050506040513d601f19601f82011682018060405250810190611915919061428c565b611954576040517f08c379a000000000000000000000000000000000000000000000000000000000815260040161194b90614925565b60405180910390fd5b8173ffffffffffffffffffffffffffffffffffffffff16847fbd634c7bdf536d4ef89dad94ea8933d03e5fbb8be4f85fc7699f5859497d793f8360405161199b91906138be565b60405180910390a35050506119ae6133f4565b50565b600c5481565b600360009054906101000a900473ffffffffffffffffffffffffffffffffffffffff1673ffffffffffffffffffffffffffffffffffffffff163373ffffffffffffffffffffffffffffffffffffffff1614611a47576040517f08c379a0000000000000000000000000000000000000000000000000000000008152600401611a3e90614991565b60405180910390fd5b6000600260009054906101000a900473ffffffffffffffffffffffffffffffffffffffff16905033600260006101000a81548173ffffffffffffffffffffffffffffffffffffffff021916908373ffffffffffffffffffffffffffffffffffffffff1602179055506000600360006101000a81548173ffffffffffffffffffffffffffffffffffffffff021916908373ffffffffffffffffffffffffffffffffffffffff1602179055503373ffffffffffffffffffffffffffffffffffffffff168173ffffffffffffffffffffffffffffffffffffffff167f8be0079c531659141344cd1fd0a4f28419497f9722a3daafe3b4186f6b6457e060405160405180910390a350565b610e1081565b600760049054906101000a900473ffffffffffffffffffffffffffffffffffffffff1673ffffffffffffffffffffffffffffffffffffffff163373ffffffffffffffffffffffffffffffffffffffff1614611be4576040517f08c379a0000000000000000000000000000000000000000000000000000000008152600401611bdb90613e53565b60405180910390fd5b611bec61336d565b611bf461349f565b565b6000600260009054906101000a900473ffffffffffffffffffffffffffffffffffffffff16905090565b611c28611bf6565b73ffffffffffffffffffffffffffffffffffffffff163373ffffffffffffffffffffffffffffffffffffffff1614158015611cb15750600460009054906101000a900473ffffffffffffffffffffffffffffffffffffffff1673ffffffffffffffffffffffffffffffffffffffff163373ffffffffffffffffffffffffffffffffffffffff1614155b15611d205733611cbf611bf6565b600460009054906101000a900473ffffffffffffffffffffffffffffffffffffffff166040517f061db9c1000000000000000000000000000000000000000000000000000000008152600401611d17939291906149b1565b60405180910390fd5b600073ffffffffffffffffffffffffffffffffffffffff168173ffffffffffffffffffffffffffffffffffffffff1603611d86576040517fd92e233d00000000000000000000000000000000000000000000000000000000815260040160405180910390fd5b80600460006101000a81548173ffffffffffffffffffffffffffffffffffffffff021916908373ffffffffffffffffffffffffffffffffffffffff1602179055507fd1a6a14209a385a964d036e404cb5cfb71f4000cdb03c9366292430787261be681604051611df69190613ae3565b60405180910390a150565b600760049054906101000a900473ffffffffffffffffffffffffffffffffffffffff1673ffffffffffffffffffffffffffffffffffffffff163373ffffffffffffffffffffffffffffffffffffffff1614611e91576040517f08c379a0000000000000000000000000000000000000000000000000000000008152600401611e8890613e53565b60405180910390fd5b600073ffffffffffffffffffffffffffffffffffffffff168173ffffffffffffffffffffffffffffffffffffffff1603611f00576040517f08c379a0000000000000000000000000000000000000000000000000000000008152600401611ef790614a5a565b60405180910390fd5b80600860006101000a81548173ffffffffffffffffffffffffffffffffffffffff021916908373ffffffffffffffffffffffffffffffffffffffff1602179055508073ffffffffffffffffffffffffffffffffffffffff167f29acee77dafcfa0143d74a7ea236018f3a6e1fa71e27fc59bbfbc6b8ca8edccd60405160405180910390a250565b600760049054906101000a900473ffffffffffffffffffffffffffffffffffffffff1673ffffffffffffffffffffffffffffffffffffffff163373ffffffffffffffffffffffffffffffffffffffff1614612017576040517f08c379a000000000000000000000000000000000000000000000000000000000815260040161200e90613e53565b60405180910390fd5b6000811161205a576040517f08c379a000000000000000000000000000000000000000000000000000000000815260040161205190614ac6565b60405180910390fd5b80600a54101561209f576040517f08c379a000000000000000000000000000000000000000000000000000000000815260040161209690614b58565b60405180910390fd5b80600b819055507f6802a03dd8e2f6a4dc2ab8cf753936dc2aeced88bcd60edfa3d49faba6bc1ade816040516120d591906138be565b60405180910390a150565b7f000000000000000000000000000000000000000000000000000000000000000081565b600460009054906101000a900473ffffffffffffffffffffffffffffffffffffffff1681565b60095481565b600a5481565b600760049054906101000a900473ffffffffffffffffffffffffffffffffffffffff1673ffffffffffffffffffffffffffffffffffffffff163373ffffffffffffffffffffffffffffffffffffffff16146121c6576040517f08c379a00000000000000000000000000000000000000000000000000000000081526004016121bd90613e53565b60405180910390fd5b600073ffffffffffffffffffffffffffffffffffffffff168173ffffffffffffffffffffffffffffffffffffffff1603612235576040517f08c379a000000000000000000000000000000000000000000000000000000000815260040161222c90614bea565b60405180910390fd5b6000600760049054906101000a900473ffffffffffffffffffffffffffffffffffffffff16905081600760046101000a81548173ffffffffffffffffffffffffffffffffffffffff021916908373ffffffffffffffffffffffffffffffffffffffff1602179055508173ffffffffffffffffffffffffffffffffffffffff168173ffffffffffffffffffffffffffffffffffffffff167f0384899bd253d83b23daa4d29aaa2efe0563d1132b43101e9ad667235aeb951b60405160405180910390a35050565b600060608060007f000000000000000000000000000000000000000000000000000000000000000073ffffffffffffffffffffffffffffffffffffffff166306fdde036040518163ffffffff1660e01b8152600401600060405180830381865afa92505050801561238f57506040513d6000823e3d601f19601f8201168201806040525081019061238c9190614d2b565b60015b612431577f000000000000000000000000000000000000000000000000000000000000000060126040518060400160405280600781526020017f554e4b4e4f574e00000000000000000000000000000000000000000000000000815250906040518060400160405280600781526020017f554e4b4e4f574e0000000000000000000000000000000000000000000000000081525090935093509350935061261b565b7f000000000000000000000000000000000000000000000000000000000000000073ffffffffffffffffffffffffffffffffffffffff166395d89b416040518163ffffffff1660e01b8152600401600060405180830381865afa9250505080156124be57506040513d6000823e3d601f19601f820116820180604052508101906124bb9190614d2b565b60015b61252b577f00000000000000000000000000000000000000000000000000000000000000008160126040518060400160405280600781526020017f554e4b4e4f574e000000000000000000000000000000000000000000000000008152509094509450945094505061261b565b7f000000000000000000000000000000000000000000000000000000000000000073ffffffffffffffffffffffffffffffffffffffff1663313ce5676040518163ffffffff1660e01b8152600401602060405180830381865afa9250505080156125b357506040513d601f19601f820116820180604052508101906125b09190614da0565b60015b6125eb577f0000000000000000000000000000000000000000000000000000000000000000828260129550955095509550505061261b565b7f000000000000000000000000000000000000000000000000000000000000000083838396509650965096505050505b90919293565b7f000000000000000000000000000000000000000000000000000000000000000081565b600760049054906101000a900473ffffffffffffffffffffffffffffffffffffffff1673ffffffffffffffffffffffffffffffffffffffff163373ffffffffffffffffffffffffffffffffffffffff16146126d5576040517f08c379a00000000000000000000000000000000000000000000000000000000081526004016126cc90613e53565b60405180910390fd5b61271081111561271a576040517f08c379a000000000000000000000000000000000000000000000000000000000815260040161271190614e3f565b60405180910390fd5b806009819055507f74516f05eb4bd2461d57aa1e935ee553f86a3e02bfed7759f2f772915de3d9be8160405161275091906138be565b60405180910390a150565b600b5481565b600760049054906101000a900473ffffffffffffffffffffffffffffffffffffffff1673ffffffffffffffffffffffffffffffffffffffff163373ffffffffffffffffffffffffffffffffffffffff16146127f1576040517f08c379a00000000000000000000000000000000000000000000000000000000081526004016127e890613e53565b60405180910390fd5b600073ffffffffffffffffffffffffffffffffffffffff168273ffffffffffffffffffffffffffffffffffffffff1603612860576040517f08c379a000000000000000000000000000000000000000000000000000000000815260040161285790614eab565b60405180910390fd5b60008290508073ffffffffffffffffffffffffffffffffffffffff1663a9059cbb61288961292e565b846040518363ffffffff1660e01b81526004016128a7929190614504565b6020604051808303816000875af11580156128c6573d6000803e3d6000fd5b505050506040513d601f19601f820116820180604052508101906128ea919061428c565b612929576040517f08c379a000000000000000000000000000000000000000000000000000000000815260040161292090614f17565b60405180910390fd5b505050565b6000600760049054906101000a900473ffffffffffffffffffffffffffffffffffffffff16905090565b600d6020528060005260406000206000915090505481565b600760049054906101000a900473ffffffffffffffffffffffffffffffffffffffff1673ffffffffffffffffffffffffffffffffffffffff163373ffffffffffffffffffffffffffffffffffffffff1614612a00576040517f08c379a00000000000000000000000000000000000000000000000000000000081526004016129f790613e53565b60405180910390fd5b600b54811015612a45576040517f08c379a0000000000000000000000000000000000000000000000000000000008152600401612a3c90614fa9565b60405180910390fd5b80600a819055507f2842cf99332cf44653926376c4c0f5d0f91b749469ac9999bb1c6c9d728b1ba881604051612a7b91906138be565b60405180910390a150565b600080600f600084815260200190815260200160002090508060040160019054906101000a900460ff168015612acb57508060040160029054906101000a900460ff16155b8015612ae85750610e108160060154612ae491906147ea565b4210155b915050919050565b600760049054906101000a900473ffffffffffffffffffffffffffffffffffffffff1673ffffffffffffffffffffffffffffffffffffffff163373ffffffffffffffffffffffffffffffffffffffff1614612b80576040517f08c379a0000000000000000000000000000000000000000000000000000000008152600401612b7790613e53565b60405180910390fd5b612b886133ae565b600047905060008111612bd0576040517f08c379a0000000000000000000000000000000000000000000000000000000008152600401612bc790615015565b60405180910390fd5b6000612bda61292e565b73ffffffffffffffffffffffffffffffffffffffff1682604051612bfd90615066565b60006040518083038185875af1925050503d8060008114612c3a576040519150601f19603f3d011682016040523d82523d6000602084013e612c3f565b606091505b5050905080612c83576040517f08c379a0000000000000000000000000000000000000000000000000000000008152600401612c7a906150c7565b60405180910390fd5b5050612c8d6133f4565b565b600860009054906101000a900473ffffffffffffffffffffffffffffffffffffffff1681565b612cbd613501565b612cc681613593565b50565b6000601060008581526020019081526020016000205490506000600f6000838152602001908152602001600020905084827f720b522b8e74026e68a96b8bffa25a22f6710cddecf55c275acd7f88c4a3a8e486866000818110612d2f57612d2e6150e7565b5b90506020020135604051612d4391906138be565b60405180910390a38060040160019054906101000a900460ff16612d9c576040517f08c379a0000000000000000000000000000000000000000000000000000000008152600401612d939061475e565b60405180910390fd5b8060040160029054906101000a900460ff1615612dee576040517f08c379a0000000000000000000000000000000000000000000000000000000008152600401612de5906147ca565b60405180910390fd5b60008160040160016101000a81548160ff0219169083151502179055506000600285856000818110612e2357612e226150e7565b5b90506020020135612e349190615145565b14612e40576001612e43565b60005b8160040160006101000a81548160ff02191690836001811115612e6957612e68613781565b5b021790555060008160010154905060008260000160149054906101000a900460ff166001811115612e9d57612e9c613781565b5b8360040160009054906101000a900460ff166001811115612ec157612ec0613781565b5b14905060008360000160009054906101000a900473ffffffffffffffffffffffffffffffffffffffff16905060018460040160026101000a81548160ff0219169083151502179055506000600d60008373ffffffffffffffffffffffffffffffffffffffff1673ffffffffffffffffffffffffffffffffffffffff168152602001908152602001600020541115612fa857600d60008273ffffffffffffffffffffffffffffffffffffffff1673ffffffffffffffffffffffffffffffffffffffff1681526020019081526020016000206000815480929190612fa2906148b0565b91905055505b81156132df57600061271060095485612fc19190615176565b612fcb91906151b8565b90508085600201819055506000600285612fe59190615176565b905060008282612ff591906151e9565b9050808760030181905550828161300c91906147ea565b7f000000000000000000000000000000000000000000000000000000000000000073ffffffffffffffffffffffffffffffffffffffff166370a08231306040518263ffffffff1660e01b81526004016130659190613ae3565b602060405180830381865afa158015613082573d6000803e3d6000fd5b505050506040513d601f19601f820116820180604052508101906130a691906140ad565b10156130e7576040517f08c379a00000000000000000000000000000000000000000000000000000000081526004016130de9061528f565b60405180910390fd5b60008111156131ce577f000000000000000000000000000000000000000000000000000000000000000073ffffffffffffffffffffffffffffffffffffffff1663a9059cbb85836040518363ffffffff1660e01b815260040161314b929190614504565b6020604051808303816000875af115801561316a573d6000803e3d6000fd5b505050506040513d601f19601f8201168201806040525081019061318e919061428c565b6131cd576040517f08c379a00000000000000000000000000000000000000000000000000000000081526004016131c4906152fb565b60405180910390fd5b5b60008311156132d7577f000000000000000000000000000000000000000000000000000000000000000073ffffffffffffffffffffffffffffffffffffffff1663a9059cbb600860009054906101000a900473ffffffffffffffffffffffffffffffffffffffff16856040518363ffffffff1660e01b815260040161325492919061533c565b6020604051808303816000875af1158015613273573d6000803e3d6000fd5b505050506040513d601f19601f82011682018060405250810190613297919061428c565b6132d6576040517f08c379a00000000000000000000000000000000000000000000000000000000081526004016132cd906153b1565b60405180910390fd5b5b5050506132f4565b60008460030181905550600084600201819055505b878173ffffffffffffffffffffffffffffffffffffffff16867fb9b0d56d8b79fead8cfe0b73d900409c9b889face7f95238017408f22d1d2c978760040160009054906101000a900460ff16886003015489600201548860405161335b94939291906153d1565b60405180910390a45050505050505050565b6133756115b1565b156133ac576040517fd93c066500000000000000000000000000000000000000000000000000000000815260040160405180910390fd5b565b6002600154036133ea576040517f3ee5aeb500000000000000000000000000000000000000000000000000000000815260040160405180910390fd5b6002600181905550565b60018081905550565b6134056115b1565b61343b576040517f8dfc202b00000000000000000000000000000000000000000000000000000000815260040160405180910390fd5b565b6134456133fd565b60008060006101000a81548160ff0219169083151502179055507f5db9ee0a495bf2e6ff9c91a7834c1ba4fdd244a5e8aa4e537bd38aeae4b073aa6134886136c1565b6040516134959190613ae3565b60405180910390a1565b6134a761336d565b60016000806101000a81548160ff0219169083151502179055507f62e78cea01bee320cd4e420270b5ea74000d11b0c9f74754ebdbfc544b05a2586134ea6136c1565b6040516134f79190613ae3565b60405180910390a1565b600260009054906101000a900473ffffffffffffffffffffffffffffffffffffffff1673ffffffffffffffffffffffffffffffffffffffff163373ffffffffffffffffffffffffffffffffffffffff1614613591576040517f08c379a000000000000000000000000000000000000000000000000000000000815260040161358890615462565b60405180910390fd5b565b3373ffffffffffffffffffffffffffffffffffffffff168173ffffffffffffffffffffffffffffffffffffffff1603613601576040517f08c379a00000000000000000000000000000000000000000000000000000000081526004016135f8906154ce565b60405180910390fd5b80600360006101000a81548173ffffffffffffffffffffffffffffffffffffffff021916908373ffffffffffffffffffffffffffffffffffffffff1602179055508073ffffffffffffffffffffffffffffffffffffffff16600260009054906101000a900473ffffffffffffffffffffffffffffffffffffffff1673ffffffffffffffffffffffffffffffffffffffff167fed8889f560326eb138920d842192f0eb3dd22b4f139c87a2c57538e05bae127860405160405180910390a350565b600033905090565b6000604051905090565b600080fd5b600080fd5b6000819050919050565b6136f0816136dd565b81146136fb57600080fd5b50565b60008135905061370d816136e7565b92915050565b600060208284031215613729576137286136d3565b5b6000613737848285016136fe565b91505092915050565b600073ffffffffffffffffffffffffffffffffffffffff82169050919050565b600061376b82613740565b9050919050565b61377b81613760565b82525050565b7f4e487b7100000000000000000000000000000000000000000000000000000000600052602160045260246000fd5b600281106137c1576137c0613781565b5b50565b60008190506137d2826137b0565b919050565b60006137e2826137c4565b9050919050565b6137f2816137d7565b82525050565b613801816136dd565b82525050565b60008115159050919050565b61381c81613807565b82525050565b600061014082019050613838600083018d613772565b613845602083018c6137e9565b613852604083018b6137f8565b61385f606083018a6137f8565b61386c60808301896137f8565b61387960a08301886137e9565b61388660c0830187613813565b61389360e0830186613813565b6138a16101008301856137f8565b6138af6101208301846137f8565b9b9a5050505050505050505050565b60006020820190506138d360008301846137f8565b92915050565b600080fd5b600080fd5b600080fd5b60008083601f8401126138fe576138fd6138d9565b5b8235905067ffffffffffffffff81111561391b5761391a6138de565b5b602083019150836020820283011115613937576139366138e3565b5b9250929050565b600080600060408486031215613957576139566136d3565b5b6000613965868287016136fe565b935050602084013567ffffffffffffffff811115613986576139856136d8565b5b613992868287016138e8565b92509250509250925092565b600281106139ab57600080fd5b50565b6000813590506139bd8161399e565b92915050565b600080604083850312156139da576139d96136d3565b5b60006139e8858286016139ae565b92505060206139f9858286016136fe565b9150509250929050565b6000819050919050565b613a1681613a03565b8114613a2157600080fd5b50565b600081359050613a3381613a0d565b92915050565b600063ffffffff82169050919050565b613a5281613a39565b8114613a5d57600080fd5b50565b600081359050613a6f81613a49565b92915050565b600080600060608486031215613a8e57613a8d6136d3565b5b6000613a9c868287016136fe565b9350506020613aad86828701613a24565b9250506040613abe86828701613a60565b9150509250925092565b6000602082019050613add6000830184613813565b92915050565b6000602082019050613af86000830184613772565b92915050565b613b0781613760565b8114613b1257600080fd5b50565b600081359050613b2481613afe565b92915050565b600060208284031215613b4057613b3f6136d3565b5b6000613b4e84828501613b15565b91505092915050565b6000613b6282613740565b9050919050565b613b7281613b57565b8114613b7d57600080fd5b50565b600081359050613b8f81613b69565b92915050565b600060208284031215613bab57613baa6136d3565b5b6000613bb984828501613b80565b91505092915050565b6000819050919050565b6000613be7613be2613bdd84613740565b613bc2565b613740565b9050919050565b6000613bf982613bcc565b9050919050565b6000613c0b82613bee565b9050919050565b613c1b81613c00565b82525050565b6000602082019050613c366000830184613c12565b92915050565b600081519050919050565b600082825260208201905092915050565b60005b83811015613c76578082015181840152602081019050613c5b565b60008484015250505050565b6000601f19601f8301169050919050565b6000613c9e82613c3c565b613ca88185613c47565b9350613cb8818560208601613c58565b613cc181613c82565b840191505092915050565b600060ff82169050919050565b613ce281613ccc565b82525050565b6000608082019050613cfd6000830187613772565b8181036020830152613d0f8186613c93565b90508181036040830152613d238185613c93565b9050613d326060830184613cd9565b95945050505050565b6000613d4682613bee565b9050919050565b613d5681613d3b565b82525050565b6000602082019050613d716000830184613d4d565b92915050565b60008060408385031215613d8e57613d8d6136d3565b5b6000613d9c85828601613b15565b9250506020613dad858286016136fe565b9150509250929050565b613dc081613b57565b82525050565b6000602082019050613ddb6000830184613db7565b92915050565b7f466c6970536b694261736556524665726332303a2063616c6c6572206973206e60008201527f6f7420746865206f776e65720000000000000000000000000000000000000000602082015250565b6000613e3d602c83613c47565b9150613e4882613de1565b604082019050919050565b60006020820190508181036000830152613e6c81613e30565b9050919050565b7f4d61782070656e64696e672067616d6573206d7573742062652067726561746560008201527f72207468616e2030000000000000000000000000000000000000000000000000602082015250565b6000613ecf602883613c47565b9150613eda82613e73565b604082019050919050565b60006020820190508181036000830152613efe81613ec2565b9050919050565b6000604082019050613f1a6000830185613772565b613f276020830184613772565b9392505050565b7f57616765722069732062656c6f77206d696e696d756d206c696d697400000000600082015250565b6000613f64601c83613c47565b9150613f6f82613f2e565b602082019050919050565b60006020820190508181036000830152613f9381613f57565b9050919050565b7f57616765722069732061626f7665206d6178696d756d206c696d697400000000600082015250565b6000613fd0601c83613c47565b9150613fdb82613f9a565b602082019050919050565b60006020820190508181036000830152613fff81613fc3565b9050919050565b7f546f6f206d616e792070656e64696e672067616d657320666f7220746869732060008201527f706c617965720000000000000000000000000000000000000000000000000000602082015250565b6000614062602683613c47565b915061406d82614006565b604082019050919050565b6000602082019050818103600083015261409181614055565b9050919050565b6000815190506140a7816136e7565b92915050565b6000602082840312156140c3576140c26136d3565b5b60006140d184828501614098565b91505092915050565b7f496e73756666696369656e7420746f6b656e20616c6c6f77616e636500000000600082015250565b6000614110601c83613c47565b915061411b826140da565b602082019050919050565b6000602082019050818103600083015261413f81614103565b9050919050565b7f496e73756666696369656e7420746f6b656e2062616c616e6365000000000000600082015250565b600061417c601a83613c47565b915061418782614146565b602082019050919050565b600060208201905081810360008301526141ab8161416f565b9050919050565b7f4e487b7100000000000000000000000000000000000000000000000000000000600052601160045260246000fd5b60006141ec826136dd565b91507fffffffffffffffffffffffffffffffffffffffffffffffffffffffffffffffff820361421e5761421d6141b2565b5b600182019050919050565b600060608201905061423e6000830186613772565b61424b6020830185613772565b61425860408301846137f8565b949350505050565b61426981613807565b811461427457600080fd5b50565b60008151905061428681614260565b92915050565b6000602082840312156142a2576142a16136d3565b5b60006142b084828501614277565b91505092915050565b7f546f6b656e207472616e73666572206661696c65640000000000000000000000600082015250565b60006142ef601583613c47565b91506142fa826142b9565b602082019050919050565b6000602082019050818103600083015261431e816142e2565b9050919050565b61432e81613a03565b82525050565b61433d816136dd565b82525050565b600061ffff82169050919050565b61435a81614343565b82525050565b61436981613a39565b82525050565b600081519050919050565b600082825260208201905092915050565b60006143968261436f565b6143a0818561437a565b93506143b0818560208601613c58565b6143b981613c82565b840191505092915050565b600060c0830160008301516143dc6000860182614325565b5060208301516143ef6020860182614334565b5060408301516144026040860182614351565b5060608301516144156060860182614360565b5060808301516144286080860182614360565b5060a083015184820360a0860152614440828261438b565b9150508091505092915050565b6000602082019050818103600083015261446781846143c4565b905092915050565b600060408201905061448460008301856137e9565b61449160208301846137f8565b9392505050565b7f4e6f20746f6b656e2062616c616e636520746f20776974686472617700000000600082015250565b60006144ce601c83613c47565b91506144d982614498565b602082019050919050565b600060208201905081810360008301526144fd816144c1565b9050919050565b60006040820190506145196000830185613772565b61452660208301846137f8565b9392505050565b7f436f6e747261637420746f6b656e2062616c616e63652077697468647261776160008201527f6c206661696c6564000000000000000000000000000000000000000000000000602082015250565b6000614589602883613c47565b91506145948261452d565b604082019050919050565b600060208201905081810360008301526145b88161457c565b9050919050565b7f537562736372697074696f6e2049442063616e6e6f74206265207a65726f0000600082015250565b60006145f5601e83613c47565b9150614600826145bf565b602082019050919050565b60006020820190508181036000830152614624816145e8565b9050919050565b7f43616c6c6261636b20676173206c696d6974206d75737420626520677265617460008201527f6572207468616e20300000000000000000000000000000000000000000000000602082015250565b6000614687602983613c47565b91506146928261462b565b604082019050919050565b600060208201905081810360008301526146b68161467a565b9050919050565b6146c681613a03565b82525050565b6146d581613a39565b82525050565b60006060820190506146f060008301866137f8565b6146fd60208301856146bd565b61470a60408301846146cc565b949350505050565b7f47616d65206e6f7420696e207265717565737465642073746174650000000000600082015250565b6000614748601b83613c47565b915061475382614712565b602082019050919050565b600060208201905081810360008301526147778161473b565b9050919050565b7f47616d6520616c726561647920736574746c6564000000000000000000000000600082015250565b60006147b4601483613c47565b91506147bf8261477e565b602082019050919050565b600060208201905081810360008301526147e3816147a7565b9050919050565b60006147f5826136dd565b9150614800836136dd565b9250828201905080821115614818576148176141b2565b5b92915050565b7f456d657267656e63792074696d656f757420706572696f64206e6f7420656c6160008201527f7073656400000000000000000000000000000000000000000000000000000000602082015250565b600061487a602483613c47565b91506148858261481e565b604082019050919050565b600060208201905081810360008301526148a98161486d565b9050919050565b60006148bb826136dd565b9150600082036148ce576148cd6141b2565b5b600182039050919050565b7f456d657267656e637920726566756e64207472616e73666572206661696c6564600082015250565b600061490f602083613c47565b915061491a826148d9565b602082019050919050565b6000602082019050818103600083015261493e81614902565b9050919050565b7f4d7573742062652070726f706f736564206f776e657200000000000000000000600082015250565b600061497b601683613c47565b915061498682614945565b602082019050919050565b600060208201905081810360008301526149aa8161496e565b9050919050565b60006060820190506149c66000830186613772565b6149d36020830185613772565b6149e06040830184613772565b949350505050565b7f4e6577206665652077616c6c65742063616e6e6f74206265207a65726f20616460008201527f6472657373000000000000000000000000000000000000000000000000000000602082015250565b6000614a44602583613c47565b9150614a4f826149e8565b604082019050919050565b60006020820190508181036000830152614a7381614a37565b9050919050565b7f4d696e207761676572206d7573742062652067726561746572207468616e2030600082015250565b6000614ab0602083613c47565b9150614abb82614a7a565b602082019050919050565b60006020820190508181036000830152614adf81614aa3565b9050919050565b7f4d6178207761676572206d7573742062652067726561746572207468616e206f60008201527f7220657175616c20746f206e6577206d696e2077616765720000000000000000602082015250565b6000614b42603883613c47565b9150614b4d82614ae6565b604082019050919050565b60006020820190508181036000830152614b7181614b35565b9050919050565b7f466c6970536b694261736556524665726332303a206e6577206f776e6572206960008201527f7320746865207a65726f20616464726573730000000000000000000000000000602082015250565b6000614bd4603283613c47565b9150614bdf82614b78565b604082019050919050565b60006020820190508181036000830152614c0381614bc7565b9050919050565b600080fd5b7f4e487b7100000000000000000000000000000000000000000000000000000000600052604160045260246000fd5b614c4782613c82565b810181811067ffffffffffffffff82111715614c6657614c65614c0f565b5b80604052505050565b6000614c796136c9565b9050614c858282614c3e565b919050565b600067ffffffffffffffff821115614ca557614ca4614c0f565b5b614cae82613c82565b9050602081019050919050565b6000614cce614cc984614c8a565b614c6f565b905082815260208101848484011115614cea57614ce9614c0a565b5b614cf5848285613c58565b509392505050565b600082601f830112614d1257614d116138d9565b5b8151614d22848260208601614cbb565b91505092915050565b600060208284031215614d4157614d406136d3565b5b600082015167ffffffffffffffff811115614d5f57614d5e6136d8565b5b614d6b84828501614cfd565b91505092915050565b614d7d81613ccc565b8114614d8857600080fd5b50565b600081519050614d9a81614d74565b92915050565b600060208284031215614db657614db56136d3565b5b6000614dc484828501614d8b565b91505092915050565b7f4665652070657263656e746167652063616e6e6f74206578636565642031303060008201527f303020626173697320706f696e74732028313030252900000000000000000000602082015250565b6000614e29603683613c47565b9150614e3482614dcd565b604082019050919050565b60006020820190508181036000830152614e5881614e1c565b9050919050565b7f546f6b656e20616464726573732063616e6e6f74206265207a65726f00000000600082015250565b6000614e95601c83613c47565b9150614ea082614e5f565b602082019050919050565b60006020820190508181036000830152614ec481614e88565b9050919050565b7f546f6b656e207769746864726177616c206661696c6564000000000000000000600082015250565b6000614f01601783613c47565b9150614f0c82614ecb565b602082019050919050565b60006020820190508181036000830152614f3081614ef4565b9050919050565b7f4d6178207761676572206d7573742062652067726561746572207468616e206f60008201527f7220657175616c20746f206d696e207761676572000000000000000000000000602082015250565b6000614f93603483613c47565b9150614f9e82614f37565b604082019050919050565b60006020820190508181036000830152614fc281614f86565b9050919050565b7f4e6f204554482062616c616e636520746f207769746864726177000000000000600082015250565b6000614fff601a83613c47565b915061500a82614fc9565b602082019050919050565b6000602082019050818103600083015261502e81614ff2565b9050919050565b600081905092915050565b50565b6000615050600083615035565b915061505b82615040565b600082019050919050565b600061507182615043565b9150819050919050565b7f455448207769746864726177616c206661696c65640000000000000000000000600082015250565b60006150b1601583613c47565b91506150bc8261507b565b602082019050919050565b600060208201905081810360008301526150e0816150a4565b9050919050565b7f4e487b7100000000000000000000000000000000000000000000000000000000600052603260045260246000fd5b7f4e487b7100000000000000000000000000000000000000000000000000000000600052601260045260246000fd5b6000615150826136dd565b915061515b836136dd565b92508261516b5761516a615116565b5b828206905092915050565b6000615181826136dd565b915061518c836136dd565b925082820261519a816136dd565b915082820484148315176151b1576151b06141b2565b5b5092915050565b60006151c3826136dd565b91506151ce836136dd565b9250826151de576151dd615116565b5b828204905092915050565b60006151f4826136dd565b91506151ff836136dd565b9250828203905081811115615217576152166141b2565b5b92915050565b7f436f6e74726163742068617320696e73756666696369656e7420746f6b656e2060008201527f62616c616e636520666f722077696e207061796f757420616e64206665650000602082015250565b6000615279603e83613c47565b91506152848261521d565b604082019050919050565b600060208201905081810360008301526152a88161526c565b9050919050565b7f506c61796572207061796f7574207472616e73666572206661696c6564000000600082015250565b60006152e5601d83613c47565b91506152f0826152af565b602082019050919050565b60006020820190508181036000830152615314816152d8565b9050919050565b600061532682613bee565b9050919050565b6153368161531b565b82525050565b6000604082019050615351600083018561532d565b61535e60208301846137f8565b9392505050565b7f466565207472616e7366657220746f2066656557616c6c6574206661696c6564600082015250565b600061539b602083613c47565b91506153a682615365565b602082019050919050565b600060208201905081810360008301526153ca8161538e565b9050919050565b60006080820190506153e660008301876137e9565b6153f360208301866137f8565b61540060408301856137f8565b61540d6060830184613813565b95945050505050565b7f4f6e6c792063616c6c61626c65206279206f776e657200000000000000000000600082015250565b600061544c601683613c47565b915061545782615416565b602082019050919050565b6000602082019050818103600083015261547b8161543f565b9050919050565b7f43616e6e6f74207472616e7366657220746f2073656c66000000000000000000600082015250565b60006154b8601783613c47565b91506154c382615482565b602082019050919050565b600060208201905081810360008301526154e7816154ab565b905091905056fea264697066735822122039175c8d346171155cb741816149f0dea49cb52e97f268a34b11cc87359f36a864736f6c63430008180033",
  "linkReferences": {},
  "deployedLinkReferences": {}
}